{
  "_format": "hh-sol-artifact-1",
  "contractName": "TheKoreans1945Minter",
  "sourceName": "contracts/TheKoreans1945Minter.sol",
  "abi": [
    {
      "inputs": [
        {
          "internalType": "contract IERC721G",
          "name": "_KOREANS",
          "type": "address"
        },
        {
          "internalType": "address[]",
          "name": "wlNFTs",
          "type": "address[]"
        },
        {
          "internalType": "address[]",
          "name": "nftsForPreMint",
          "type": "address[]"
        }
      ],
      "stateMutability": "nonpayable",
      "type": "constructor"
    },
    {
      "anonymous": false,
      "inputs": [
        {
          "indexed": false,
          "internalType": "address[]",
          "name": "users",
          "type": "address[]"
        },
        {
          "indexed": false,
          "internalType": "uint256",
          "name": "initialId",
          "type": "uint256"
        },
        {
          "indexed": false,
          "internalType": "uint256",
          "name": "lastId",
          "type": "uint256"
        }
      ],
      "name": "Airdrop",
      "type": "event"
    },
    {
      "anonymous": false,
      "inputs": [
        {
          "indexed": false,
          "internalType": "address",
          "name": "user",
          "type": "address"
        },
        {
          "indexed": false,
          "internalType": "uint256",
          "name": "tokenId",
          "type": "uint256"
        }
      ],
      "name": "Mint",
      "type": "event"
    },
    {
      "anonymous": false,
      "inputs": [
        {
          "indexed": true,
          "internalType": "address",
          "name": "previousOwner",
          "type": "address"
        },
        {
          "indexed": true,
          "internalType": "address",
          "name": "newOwner",
          "type": "address"
        }
      ],
      "name": "OwnershipTransferred",
      "type": "event"
    },
    {
      "anonymous": false,
      "inputs": [
        {
          "indexed": false,
          "internalType": "address",
          "name": "nft",
          "type": "address"
        },
        {
          "indexed": false,
          "internalType": "bool",
          "name": "status",
          "type": "bool"
        }
      ],
      "name": "SetNFTWhitelist",
      "type": "event"
    },
    {
      "anonymous": false,
      "inputs": [
        {
          "indexed": false,
          "internalType": "address",
          "name": "user",
          "type": "address"
        },
        {
          "indexed": false,
          "internalType": "bool",
          "name": "status",
          "type": "bool"
        }
      ],
      "name": "SetUserWhitelist",
      "type": "event"
    },
    {
      "inputs": [],
      "name": "KOREANS",
      "outputs": [
        {
          "internalType": "contract IERC721G",
          "name": "",
          "type": "address"
        }
      ],
      "stateMutability": "view",
      "type": "function"
    },
    {
      "inputs": [
        {
          "internalType": "address[]",
          "name": "users",
          "type": "address[]"
        }
      ],
      "name": "airdrop",
      "outputs": [],
      "stateMutability": "nonpayable",
      "type": "function"
    },
    {
      "inputs": [
        {
          "internalType": "address",
          "name": "",
          "type": "address"
        }
      ],
      "name": "isListedNFT",
      "outputs": [
        {
          "internalType": "bool",
          "name": "",
          "type": "bool"
        }
      ],
      "stateMutability": "view",
      "type": "function"
    },
    {
      "inputs": [
        {
          "internalType": "address",
          "name": "",
          "type": "address"
        }
      ],
      "name": "isListedUser",
      "outputs": [
        {
          "internalType": "bool",
          "name": "",
          "type": "bool"
        }
      ],
      "stateMutability": "view",
      "type": "function"
    },
    {
      "inputs": [
        {
          "internalType": "address",
          "name": "nft",
          "type": "address"
        }
      ],
      "name": "mint",
      "outputs": [],
      "stateMutability": "nonpayable",
      "type": "function"
    },
    {
      "inputs": [
        {
          "internalType": "address",
          "name": "",
          "type": "address"
        },
        {
          "internalType": "address",
          "name": "",
          "type": "address"
        }
      ],
      "name": "mintedAmount",
      "outputs": [
        {
          "internalType": "uint256",
          "name": "",
          "type": "uint256"
        }
      ],
      "stateMutability": "view",
      "type": "function"
    },
    {
      "inputs": [
        {
          "internalType": "address",
          "name": "",
          "type": "address"
        }
      ],
      "name": "nftForPreMint",
      "outputs": [
        {
          "internalType": "bool",
          "name": "",
          "type": "bool"
        }
      ],
      "stateMutability": "view",
      "type": "function"
    },
    {
      "inputs": [],
      "name": "owner",
      "outputs": [
        {
          "internalType": "address",
          "name": "",
          "type": "address"
        }
      ],
      "stateMutability": "view",
      "type": "function"
    },
    {
      "inputs": [],
      "name": "preMintTime",
      "outputs": [
        {
          "internalType": "uint256",
          "name": "",
          "type": "uint256"
        }
      ],
      "stateMutability": "view",
      "type": "function"
    },
    {
      "inputs": [],
      "name": "publicMintTime",
      "outputs": [
        {
          "internalType": "uint256",
          "name": "",
          "type": "uint256"
        }
      ],
      "stateMutability": "view",
      "type": "function"
    },
    {
      "inputs": [],
      "name": "renounceOwnership",
      "outputs": [],
      "stateMutability": "nonpayable",
      "type": "function"
    },
    {
      "inputs": [
        {
          "internalType": "address[]",
          "name": "nfts",
          "type": "address[]"
        },
        {
          "internalType": "bool",
          "name": "status",
          "type": "bool"
        }
      ],
      "name": "setNFTForPreMint",
      "outputs": [],
      "stateMutability": "nonpayable",
      "type": "function"
    },
    {
      "inputs": [
        {
          "internalType": "address[]",
          "name": "nfts",
          "type": "address[]"
        },
        {
          "internalType": "bool",
          "name": "status",
          "type": "bool"
        }
      ],
      "name": "setNFTWhitelist",
      "outputs": [],
      "stateMutability": "nonpayable",
      "type": "function"
    },
    {
      "inputs": [
        {
          "internalType": "address[]",
          "name": "users",
          "type": "address[]"
        },
        {
          "internalType": "bool",
          "name": "status",
          "type": "bool"
        }
      ],
      "name": "setUserWhitelist",
      "outputs": [],
      "stateMutability": "nonpayable",
      "type": "function"
    },
    {
      "inputs": [
        {
          "internalType": "address",
          "name": "newOwner",
          "type": "address"
        }
      ],
      "name": "transferOwnership",
      "outputs": [],
      "stateMutability": "nonpayable",
      "type": "function"
    },
    {
      "inputs": [],
      "name": "wlMintTime",
      "outputs": [
        {
          "internalType": "uint256",
          "name": "",
          "type": "uint256"
        }
      ],
      "stateMutability": "view",
      "type": "function"
    }
  ],
  "bytecode": "0x60a06040523480156200001157600080fd5b50604051620014de380380620014de833981016040819052620000349162000345565b6200003f3362000207565b6001600160a01b038316608052815160005b818110156200013657600160026000868481518110620000755762000075620003c4565b60200260200101516001600160a01b03166001600160a01b0316815260200190815260200160002060006101000a81548160ff0219169083151502179055507f4bbcfafbd1e468050f3d89f0019ffa884cdce190e33c15e1e6e2ed2298904051848281518110620000ea57620000ea620003c4565b60200260200101516001604051620001199291906001600160a01b039290921682521515602082015260400190565b60405180910390a1806200012d81620003da565b91505062000051565b50508051600481146200018f5760405162461bcd60e51b815260206004820152601860248201527f494e56414c49445f4e4654535f464f525f5052454d494e540000000000000000604482015260640160405180910390fd5b60005b81811015620001fc576001806000858481518110620001b557620001b5620003c4565b6020908102919091018101516001600160a01b03168252810191909152604001600020805460ff191691151591909117905580620001f381620003da565b91505062000192565b505050505062000402565b600080546001600160a01b038381166001600160a01b0319831681178455604051919092169283917f8be0079c531659141344cd1fd0a4f28419497f9722a3daafe3b4186f6b6457e09190a35050565b6001600160a01b03811681146200026d57600080fd5b50565b634e487b7160e01b600052604160045260246000fd5b8051620002938162000257565b919050565b600082601f830112620002aa57600080fd5b815160206001600160401b0380831115620002c957620002c962000270565b8260051b604051601f19603f83011681018181108482111715620002f157620002f162000270565b6040529384528581018301938381019250878511156200031057600080fd5b83870191505b848210156200033a576200032a8262000286565b8352918301919083019062000316565b979650505050505050565b6000806000606084860312156200035b57600080fd5b8351620003688162000257565b60208501519093506001600160401b03808211156200038657600080fd5b620003948783880162000298565b93506040860151915080821115620003ab57600080fd5b50620003ba8682870162000298565b9150509250925092565b634e487b7160e01b600052603260045260246000fd5b600060018201620003fb57634e487b7160e01b600052601160045260246000fd5b5060010190565b60805161109d620004416000396000818161019e015281816105c20152818161097c01528181610a1b01528181610add0152610b6c015261109d6000f3fe608060405234801561001057600080fd5b50600436106101005760003560e01c806368e79e3d116100975780638da5cb5b116100665780638da5cb5b14610237578063dd0ebc2e14610248578063dd1e926c14610273578063f2fde38b1461029657600080fd5b806368e79e3d146101f65780636a62784214610209578063715018a61461021c578063729ad39e1461022457600080fd5b80634a4fb3a4116100d35780634a4fb3a414610176578063506012fe146101995780635e403472146101d8578063678d638e146101e357600080fd5b80630ebf8f5c1461010557806312d445461461012357806331c3f62a1461013857806348d755d51461016b575b600080fd5b6101106362fa435081565b6040519081526020015b60405180910390f35b610136610131366004610e75565b6102a9565b005b61015b610146366004610eed565b60016020526000908152604090205460ff1681565b604051901515815260200161011a565b6101106362fa354081565b61015b610184366004610eed565b60036020526000908152604090205460ff1681565b6101c07f000000000000000000000000000000000000000000000000000000000000000081565b6040516001600160a01b03909116815260200161011a565b6101106362fb94d081565b6101366101f1366004610e75565b610392565b610136610204366004610e75565b610475565b610136610217366004610eed565b6104ee565b610136610abd565b610136610232366004610f0f565b610ad1565b6000546001600160a01b03166101c0565b610110610256366004610f51565b600460209081526000928352604080842090915290825290205481565b61015b610281366004610eed565b60026020526000908152604090205460ff1681565b6101366102a4366004610eed565b610d06565b6102b1610d7f565b60005b8281101561038c5781600260008686858181106102d3576102d3610f84565b90506020020160208101906102e89190610eed565b6001600160a01b031681526020810191909152604001600020805460ff19169115159190911790557f4bbcfafbd1e468050f3d89f0019ffa884cdce190e33c15e1e6e2ed229890405184848381811061034357610343610f84565b90506020020160208101906103589190610eed565b604080516001600160a01b03909216825284151560208301520160405180910390a18061038481610fb0565b9150506102b4565b50505050565b61039a610d7f565b60005b8281101561038c5781600360008686858181106103bc576103bc610f84565b90506020020160208101906103d19190610eed565b6001600160a01b031681526020810191909152604001600020805460ff19169115159190911790557f45de336f17af35db3539f8191e2c3388d74d08d7bb1eeee2f621414467a3300b84848381811061042c5761042c610f84565b90506020020160208101906104419190610eed565b604080516001600160a01b03909216825284151560208301520160405180910390a18061046d81610fb0565b91505061039d565b61047d610d7f565b60005b8281101561038c57816001600086868581811061049f5761049f610f84565b90506020020160208101906104b49190610eed565b6001600160a01b031681526020810191909152604001600020805460ff1916911515919091179055806104e681610fb0565b915050610480565b6362fa35404210156105395760405162461bcd60e51b815260206004820152600f60248201526e1393d517d4d5105495115117d65155608a1b60448201526064015b60405180910390fd5b6362fa43504210156107db576001600160a01b0381166105bd573360009081526003602052604090205460ff166105a15760405162461bcd60e51b815260206004820152600c60248201526b15539055551213d49256915160a21b6044820152606401610530565b336000908152600360205260409020805460ff19169055610978565b6103b17f00000000000000000000000000000000000000000000000000000000000000006001600160a01b03166318160ddd6040518163ffffffff1660e01b8152600401602060405180830381865afa15801561061e573d6000803e3d6000fd5b505050506040513d601f19601f820116820180604052508101906106429190610fc9565b1061064c57600080fd5b6001600160a01b03811660009081526001602052604090205460ff166106ac5760405162461bcd60e51b81526020600482015260156024820152741393d517d6515517d5d2551217d5121254d7d39195605a1b6044820152606401610530565b3360009081526004602090815260408083206001600160a01b03851684529091528120805490826106dc83610fb0565b90915550905080156107305760405162461bcd60e51b815260206004820152601a60248201527f4f4e4c595f315f4e46545f494e5f5052454d494e545f54494d450000000000006044820152606401610530565b6040516370a0823160e01b81523360048201526001600160a01b038316906370a0823190602401602060405180830381865afa158015610774573d6000803e3d6000fd5b505050506040513d601f19601f820116820180604052508101906107989190610fc9565b81106107d55760405162461bcd60e51b815260206004820152600c60248201526b4f55545f4f465f52414e474560a01b6044820152606401610530565b50610978565b6362fb94d0421015610978576001600160a01b038116610843573360009081526003602052604090205460ff166105a15760405162461bcd60e51b815260206004820152600c60248201526b15539055551213d49256915160a21b6044820152606401610530565b6001600160a01b03811660009081526002602052604090205460ff166108a15760405162461bcd60e51b8152602060048201526013602482015272494e56414c49445f4e46545f4144445245535360681b6044820152606401610530565b6040516370a0823160e01b81523360048201526001600160a01b038216906370a0823190602401602060405180830381865afa1580156108e5573d6000803e3d6000fd5b505050506040513d601f19601f820116820180604052508101906109099190610fc9565b3360009081526004602090815260408083206001600160a01b0386168452909152812080549161093883610fb0565b91905055106109785760405162461bcd60e51b815260206004820152600c60248201526b4f55545f4f465f52414e474560a01b6044820152606401610530565b60007f00000000000000000000000000000000000000000000000000000000000000006001600160a01b03166318160ddd6040518163ffffffff1660e01b8152600401602060405180830381865afa1580156109d8573d6000803e3d6000fd5b505050506040513d601f19601f820116820180604052508101906109fc9190610fc9565b6040516340c10f1960e01b8152336004820152602481018290529091507f00000000000000000000000000000000000000000000000000000000000000006001600160a01b0316906340c10f1990604401600060405180830381600087803b158015610a6757600080fd5b505af1158015610a7b573d6000803e3d6000fd5b505060408051338152602081018590527f0f6798a560793a54c3bcfe86a93cde1e73087d944c0ea20544137d4121396885935001905060405180910390a15050565b610ac5610d7f565b610acf6000610dd9565b565b610ad9610d7f565b60007f00000000000000000000000000000000000000000000000000000000000000006001600160a01b03166318160ddd6040518163ffffffff1660e01b8152600401602060405180830381865afa158015610b39573d6000803e3d6000fd5b505050506040513d601f19601f82011682018060405250810190610b5d9190610fc9565b905060005b82811015610cae577f00000000000000000000000000000000000000000000000000000000000000006001600160a01b03166340c10f19858584818110610bab57610bab610f84565b9050602002016020810190610bc09190610eed565b610bca8486610fe2565b6040516001600160e01b031960e085901b1681526001600160a01b0390921660048301526024820152604401600060405180830381600087803b158015610c1057600080fd5b505af1158015610c24573d6000803e3d6000fd5b505050507f0f6798a560793a54c3bcfe86a93cde1e73087d944c0ea20544137d4121396885848483818110610c5b57610c5b610f84565b9050602002016020810190610c709190610eed565b610c7a8385610fe2565b604080516001600160a01b03909316835260208301919091520160405180910390a180610ca681610fb0565b915050610b62565b507fdc9ed8365253ab3c3fd16e2a040eaa15011d84d4cb2347d06376f379fc1e8d618383836001610cdf8383610fe2565b610ce99190610ffa565b604051610cf99493929190611011565b60405180910390a1505050565b610d0e610d7f565b6001600160a01b038116610d735760405162461bcd60e51b815260206004820152602660248201527f4f776e61626c653a206e6577206f776e657220697320746865207a65726f206160448201526564647265737360d01b6064820152608401610530565b610d7c81610dd9565b50565b6000546001600160a01b03163314610acf5760405162461bcd60e51b815260206004820181905260248201527f4f776e61626c653a2063616c6c6572206973206e6f7420746865206f776e65726044820152606401610530565b600080546001600160a01b038381166001600160a01b0319831681178455604051919092169283917f8be0079c531659141344cd1fd0a4f28419497f9722a3daafe3b4186f6b6457e09190a35050565b60008083601f840112610e3b57600080fd5b50813567ffffffffffffffff811115610e5357600080fd5b6020830191508360208260051b8501011115610e6e57600080fd5b9250929050565b600080600060408486031215610e8a57600080fd5b833567ffffffffffffffff811115610ea157600080fd5b610ead86828701610e29565b90945092505060208401358015158114610ec657600080fd5b809150509250925092565b80356001600160a01b0381168114610ee857600080fd5b919050565b600060208284031215610eff57600080fd5b610f0882610ed1565b9392505050565b60008060208385031215610f2257600080fd5b823567ffffffffffffffff811115610f3957600080fd5b610f4585828601610e29565b90969095509350505050565b60008060408385031215610f6457600080fd5b610f6d83610ed1565b9150610f7b60208401610ed1565b90509250929050565b634e487b7160e01b600052603260045260246000fd5b634e487b7160e01b600052601160045260246000fd5b600060018201610fc257610fc2610f9a565b5060010190565b600060208284031215610fdb57600080fd5b5051919050565b60008219821115610ff557610ff5610f9a565b500190565b60008282101561100c5761100c610f9a565b500390565b6060808252810184905260008560808301825b87811015611052576001600160a01b0361103d84610ed1565b16825260209283019290910190600101611024565b5060208401959095525050604001529291505056fea26469706673582212204c7f706398d1da7d6a53a5ccb8895dbe17b029b259d1c709f6020a04680064b564736f6c634300080f0033",
  "linkReferences": {},
  "deployedLinkReferences": {}
}